{
  "contractName": "Asset",
  "abi": [
    {
      "inputs": [
        {
          "internalType": "address",
          "name": "_initialOwner",
          "type": "address"
        },
        {
          "internalType": "string",
          "name": "_assetName",
          "type": "string"
        }
      ],
      "stateMutability": "nonpayable",
      "type": "constructor"
    },
    {
      "anonymous": false,
      "inputs": [
        {
          "indexed": true,
          "internalType": "address",
          "name": "_from",
          "type": "address"
        },
        {
          "indexed": true,
          "internalType": "address",
          "name": "_to",
          "type": "address"
        },
        {
          "indexed": false,
          "internalType": "address",
          "name": "_assetAddress",
          "type": "address"
        }
      ],
      "name": "Transfer",
      "type": "event"
    },
    {
      "inputs": [],
      "name": "getOwner",
      "outputs": [
        {
          "internalType": "address",
          "name": "",
          "type": "address"
        }
      ],
      "stateMutability": "view",
      "type": "function"
    },
    {
      "inputs": [
        {
          "internalType": "address",
          "name": "newOwner",
          "type": "address"
        },
        {
          "internalType": "address",
          "name": "assetAddress",
          "type": "address"
        }
      ],
      "name": "transferAsset",
      "outputs": [],
      "stateMutability": "nonpayable",
      "type": "function"
    }
  ],
  "bytecode": "0x608060405234801561001057600080fd5b5060405161070f38038061070f8339818101604052810190610032919061030f565b816000806101000a81548173ffffffffffffffffffffffffffffffffffffffff021916908373ffffffffffffffffffffffffffffffffffffffff1602179055508060019080519060200190610088929190610090565b5050506103cb565b82805461009c9061039a565b90600052602060002090601f0160209004810192826100be5760008555610105565b82601f106100d757805160ff1916838001178555610105565b82800160010185558215610105579182015b828111156101045782518255916020019190600101906100e9565b5b5090506101129190610116565b5090565b5b8082111561012f576000816000905550600101610117565b5090565b6000604051905090565b600080fd5b600080fd5b600073ffffffffffffffffffffffffffffffffffffffff82169050919050565b600061017282610147565b9050919050565b61018281610167565b811461018d57600080fd5b50565b60008151905061019f81610179565b92915050565b600080fd5b600080fd5b6000601f19601f8301169050919050565b7f4e487b7100000000000000000000000000000000000000000000000000000000600052604160045260246000fd5b6101f8826101af565b810181811067ffffffffffffffff82111715610217576102166101c0565b5b80604052505050565b600061022a610133565b905061023682826101ef565b919050565b600067ffffffffffffffff821115610256576102556101c0565b5b61025f826101af565b9050602081019050919050565b60005b8381101561028a57808201518184015260208101905061026f565b83811115610299576000848401525b50505050565b60006102b26102ad8461023b565b610220565b9050828152602081018484840111156102ce576102cd6101aa565b5b6102d984828561026c565b509392505050565b600082601f8301126102f6576102f56101a5565b5b815161030684826020860161029f565b91505092915050565b600080604083850312156103265761032561013d565b5b600061033485828601610190565b925050602083015167ffffffffffffffff81111561035557610354610142565b5b610361858286016102e1565b9150509250929050565b7f4e487b7100000000000000000000000000000000000000000000000000000000600052602260045260246000fd5b600060028204905060018216806103b257607f821691505b6020821081036103c5576103c461036b565b5b50919050565b610335806103da6000396000f3fe608060405234801561001057600080fd5b50600436106100365760003560e01c8063893d20e81461003b5780638eab45ba14610059575b600080fd5b610043610075565b60405161005091906101f6565b60405180910390f35b610073600480360381019061006e9190610242565b61009e565b005b60008060009054906101000a900473ffffffffffffffffffffffffffffffffffffffff16905090565b60008054906101000a900473ffffffffffffffffffffffffffffffffffffffff1673ffffffffffffffffffffffffffffffffffffffff163373ffffffffffffffffffffffffffffffffffffffff161461012c576040517f08c379a0000000000000000000000000000000000000000000000000000000008152600401610123906102df565b60405180910390fd5b8173ffffffffffffffffffffffffffffffffffffffff1660008054906101000a900473ffffffffffffffffffffffffffffffffffffffff1673ffffffffffffffffffffffffffffffffffffffff167f3b5c651dbcca6f936576130d201fbc5f5a2c3568820a6d9b2987ea2b7fc91b32836040516101a991906101f6565b60405180910390a35050565b600073ffffffffffffffffffffffffffffffffffffffff82169050919050565b60006101e0826101b5565b9050919050565b6101f0816101d5565b82525050565b600060208201905061020b60008301846101e7565b92915050565b600080fd5b61021f816101d5565b811461022a57600080fd5b50565b60008135905061023c81610216565b92915050565b6000806040838503121561025957610258610211565b5b60006102678582860161022d565b92505060206102788582860161022d565b9150509250929050565b600082825260208201905092915050565b7f43616c6c6572206973206e6f74206f776e657200000000000000000000000000600082015250565b60006102c9601383610282565b91506102d482610293565b602082019050919050565b600060208201905081810360008301526102f8816102bc565b905091905056fea26469706673582212207faabf78f103fd9196ef0905b3bf108d52911a9d4174f40827375d162ee7ed6364736f6c634300080d0033",
  "immutableReferences": {},
  "source": "// ChainOfCustody.sol\n\npragma solidity ^0.8.13;\n\ncontract Asset {\n\n    address private owner;\n    string private assetName;\n\n    event Transfer(address indexed _from, address indexed _to, address _assetAddress);\n\n    constructor(address _initialOwner, string memory _assetName) {\n        owner = _initialOwner;\n        assetName = _assetName;\n    }\n\n    modifier isOwner() {\n        require(msg.sender == owner, \"Caller is not owner\");\n        _;\n    }\n\n    function getOwner() external view returns (address) {\n        return owner;\n    }\n\n    function transferAsset(address newOwner, address assetAddress) public isOwner {\n        emit Transfer(owner, newOwner, assetAddress);\n    }\n}\n\n",
  "sourcePath": "/Users/colehlava/Documents/Code/Blockchain/ChainOfCustody/contract/contracts/Asset.sol",
  "compiler": {
    "name": "solc",
    "version": "0.8.13+commit.abaa5c0e.Emscripten.clang"
  },
  "schemaVersion": "3.4.16",
  "updatedAt": "2024-01-21T20:19:16.566Z",
  "devdoc": {
    "kind": "dev",
    "methods": {},
    "version": 1
  },
  "userdoc": {
    "kind": "user",
    "methods": {},
    "version": 1
  }
}